:020000040800F2
:100000000004002045010008BB080008CD030008DB
:10001000B70800088D010008510A00080000000020
:1000200000000000000000000000000001090008BE
:100030009101000800000000BD080008ED0900085B
:100040005F0100085F0100085F0100085F01000810
:100050005F0100085F0100085F0100085F01000800
:100060005F0100085F0100085F0100085F010008F0
:100070005F0100085F0100085F0100085F010008E0
:100080005F0100085F0100085F0100085F010008D0
:100090005F0100085F0100085F0100085F010008C0
:1000A0005F0100085F0100085F0100085F010008B0
:1000B0005F0100085F0100085F0100085F010008A0
:1000C0005F0100085F0100085F0100085F01000890
:1000D0005F0100085F0100085F0100085F01000880
:1000E0005F0100085F0100085F0100085F01000870
:1000F0005F0100085F0100085F0100085F01000860
:100100005F0100085F0100085F0100085F0100084F
:100110005F0100085F0100085F0100085F0100083F
:100120005F0100085F0100085F0100085F0100082F
:10013000DFF80CD000F018F800480047750A0008F6
:10014000000400200648804706480047FEE7FEE717
:10015000FEE7FEE7FEE7FEE7FEE7FEE7FEE7FEE777
:10016000F109000831010008064C074D06E0E0687F
:1001700040F0010394E8070098471034AC42F6D3EE
:10018000FFF7DAFFA40F0008B40F000800BFFEE776
:100190007047000051B18200A2F1C042126842F0E3
:1001A00001038200A2F1C042136009E08200A2F1C3
:1001B000C0421268034B1A408300A3F1C0431A6087
:1001C00070470000FEFF0F00D0E901121143C26822
:1001D0001143026911434269114382691143C269A3
:1001E0001143026A1143426A1143826A1143C26A8F
:1001F0001143026B114302689200A2F1C0421160E8
:10020000816808290BD101688900A1F1C041096802
:1002100041F0400201688900A1F1C0410A60416BD0
:100220000968426B526841EA0211426B926841EAE6
:100230000221426B928941EA0241426B128A41EAF1
:100240000251426B127D41EA0261426B9269114395
:100250000268521C9200A2F1C0421160C16AB1F55D
:10026000804F1BD1816B0968826B526841EA021191
:10027000826B926841EA0221826B128A41EA025142
:10028000826B127D41EA0261826B926911430268BE
:100290009200A2F1C042C2F8041107E06FF0704270
:1002A00001688900A1F1C041C1F8042170472DE91E
:1002B000F0410246002500260020002300240027EC
:1002C00091F803C00CF00F0591F803C00CF0100C6E
:1002D000BCF1000F03D091F802C04CEA050591F87B
:1002E00000C0BCF1000F31D0146800202BE04FF0AB
:1002F000010C0CFA00F3B1F800C00CEA03069E42B0
:1003000020D183004FF00F0C0CFA03F7BC4305FA21
:1003100003FC4CEA040491F803C0BCF1280F06D199
:100320004FF0010C0CFA00FCC2F814C00AE091F87E
:1003300003C0BCF1480F05D14FF0010C0CFA00FCD2
:10034000C2F810C0401C0828D1D31460B1F800C016
:10035000BCF1FF0F34DD546800202EE000F1080CE2
:100360004FF0010808FA0CF3B1F800C00CEA0306DC
:100370009E4221D183004FF00F0C0CFA03F7BC43CF
:1003800005FA03FC4CEA040491F803C0BCF1280F01
:1003900005D100F1080C08FA0CF8C2F8148091F8A5
:1003A00003C0BCF1480F07D100F1080C4FF0010861
:1003B00008FA0CF8C2F81080401C0828CED354600C
:1003C000BDE8F081416170470161704700BFFEE701
:1003D0002DE9F04706468846144699460027002531
:1003E00025462DB94B4630224146304600F040F8B4
:1003F00003E00A20B5FBF0F57F1C002DF9D114E0D5
:100400000A20B4FBF0F100FB114000F1300A39463C
:100410007F1E062202FB016188B24B4652464146CE
:1004200000F026F80A20B4FBF0F4002CE8D1BDE877
:10043000F087F0B505460E4614461F4614E0EA2D37
:1004400004DD002506F10C0086B204E0B6F59A7FC3
:1004500001DD0025002622783B463146284600F083
:1004600007F8A81D85B2641C20780028E7D1F0BDEC
:100470002DE9F04F81468A4615461E46A5F120001B
:1004800000F0FF0B0C2306225146484600F0A6F868
:100490002C20C106088000241AE00BEB4B000E490B
:1004A00001EB800010F8048000270DE008F0010047
:1004B00010B10A48068003E04FF6FF700749088034
:1004C0004FEA6808781CC7B2062FEFDB601CC4B285
:1004D0000C2CE2DBBDE8F08F240B0008000002606A
:1004E00000B597B00121080200F0EAF9022001905E
:1004F00000200290052003900020069005900490B3
:100500004FF080500790002008900C9009901390B5
:1005100010200B9008200A900020129010900E904E
:100520000F9014904FF48050119001A816901590E0
:1005300008A8FFF749FE01210020FFF72BFE17B0A6
:1005400000BD000008B50121602000F0C9F91820A5
:100550008DF8030003208DF802004CF20370ADF813
:10056000000069461648FFF7A2FE4FF68070ADF80E
:10057000000069461348FFF79AFE10208DF803002B
:100580000220ADF8000069460E48FFF790FE4FF4D8
:100590008050ADF8000069460948FFF788FE182032
:1005A0008DF803004FF40B60ADF800006946044875
:1005B000FFF77DFE4FF480510148FFF703FF08BDB0
:1005C000001401400018014010B5FFF7BBFFFFF712
:1005D00087FF00F053F900F029F810BD30B52A2448
:1005E0004FF0C0452C8004120F4D2C80C4B22C80DB
:1005F0008418641EC4F30F242C808418641EE4B293
:100600002C802B2465072C800C12074D2C80CCB23B
:100610002C80CC18641EC4F30F242C80CC18641ECC
:10062000E4B22C8030BD00000000026000B5CF2095
:100630004FF0C04108800020744908808120088064
:1006400030200880ED204FF0C041088064206F49C1
:100650000880032008801220088081200880E8207C
:100660004FF0C0410880852068490880102008802C
:1006700078200880CB204107088039206349088012
:100680002C20088000200880342008800220088068
:10069000F7204FF0C041088020205C490880EA2004
:1006A0004FF0C04108800020584908800880B120E0
:1006B0004FF0C04108800020544908801B2008806A
:1006C000B620010708800A2050490880A22008802F
:1006D000C020C105088035204C490880C1204FF05A
:1006E000C0410880112049490880C5204FF0C04111
:1006F00008804520454908800880C7204FF0C04148
:100700000880A22041490880F2204FF0C0410880B3
:1007100000203E49088026200107088001203B492F
:100720000880E0204FF0C04108800F203749088042
:1007300026200880242008800B2008800E200880B6
:100740000920088054200880A820088046200880BE
:100750000C20088017200880092008800F200880BE
:100760000720088000200880E1204FF0C041088069
:10077000002026490880192008801B2008800420BA
:10078000088010200880072008802A200880472041
:10079000088039200880032008800620088008800F
:1007A00030200880382008800F200880362001077C
:1007B0000880C820154908802A204FF0C0410880D1
:1007C00000201249088008800880EF2008802B2034
:1007D0004107088000200D4908800880012008801A
:1007E0003F2008803A204FF0C0410880552007493B
:1007F000088011204FF0C0410880054800F052F8F1
:1008000029204FF0C041088000BD000000000260B8
:10081000FCBF0200F0B5059D2A264FF0C0473E8080
:100820000612154F3E80C6B23E808618761EC6F36D
:100830000F263E808618761EF6B23E802B2677075E
:100840003E800E120C4F3E80CEB23E80CE18761EF9
:10085000C6F30F263E80CE18761EF6B23E802C26BA
:10086000F7063E80002402E0034E3580641C02FB44
:1008700003F6A642F8D8F0BD0000026010B50221D0
:100880000648FFF79FFD064800F00CF802210348D8
:10089000FFF79AFD024800F005F810BD001801406E
:1008A000FCBF020001B502E00098401E00900098D5
:1008B0000028F9D108BD00BFFEE77047704700006F
:1008C00029B1064A52690243044B5A6104E0034AC3
:1008D00052698243014B5A61704700000010024088
:1008E00029B1064A92690243044B9A6104E0034A23
:1008F00092698243014B9A617047000000100240E8
:10090000704710B500F002F810BD00000CB50020D3
:10091000019000903348006840F48030314908600D
:1009200000BF3048006800F4003000900198401C7F
:100930000190009818B90198B0F5A06FF1D129483D
:10094000006800F4003010B10120009001E00020A8
:1009500000900098012843D12348006840F010001F
:10096000214908600846006820F003000860084636
:10097000006840F0020008601A4840681949486061
:100980000846406848600846406840F48060486017
:100990000846406820F47C1048600846406840F4EF
:1009A000E81048600846006840F08070086000BFAA
:1009B0000C48006800F000700028F9D00948406831
:1009C00020F00300074948600846406840F00200F4
:1009D000486000BF0348406800F00C000828F9D1C7
:1009E0000CBD0000001002400020024070470000D3
:1009F00010B51348006840F001001149086008462E
:100A00004068104908400E494860084600680E4991
:100A100008400B4908600846006820F48020086000
:100A20000846406820F4FE0048604FF41F008860CC
:100A3000FFF767FF4FF000600449086010BD000039
:100A4000001002400000FFF8FFFFF6FE08ED00E096
:100A500000BFFEE702E008C8121F08C1002AFAD151
:100A600070477047002001E001C1121F002AFBD12E
:100A70007047000008B5FFF7A7FD4FF6FF704FF471
:100A8000A073F022002100900846FFF7C3FE002368
:100A90000FA20A211420FFF7CCFC002315A2182175
:100AA0004B20FFF7C6FC002317A23C210D20FFF7C7
:100AB000C0FC002317A254210D20FFF7BAFC4FF40D
:100AC00078435F223C216420FFF782FC00BFFEE7F1
:100AD0005468697320697320612074656D70657254
:100AE000617475726520616E642068756D696469F2
:100AF000747900006D6561737572696E67206D654C
:100B00007465722E0000000048756D69646974791F
:100B10003A00000054656D70657261747572653AD3
:100B200000000000000000000000000000000000C5
:100B300000000404040404040004000000140A0A71
:100B40000000000000000000000014143F140A3FE1
:100B50000A0A000000041E1505060C14150F0400F7
:100B6000000012150D0A142C2A1200000000040ABD
:100B70000A1E1515093600000002020100000000DF
:100B800000000000002010080808080808102000D5
:100B90000002040808080808080402000000000415
:100BA000150E0E150400000000000404041F0404C8
:100BB000040000000000000000000000000202012C
:100BC00000000000001F0000000000000000000006
:100BD00000000000000200000010080808040402E1
:100BE0000202010000000E1111111111110E00007E
:100BF0000000040604040404040E000000000E11AA
:100C000011080402011F000000000E11100C10104A
:100C1000110E00000000080C0A0A091E0818000046
:100C200000001F01010F1010110E000000000E093E
:100C3000010F1111110E000000001F090804040427
:100C40000404000000000E11110E1111110E00001D
:100C500000000E1111111E10120E00000000000005
:100C60000400000000040000000000000004000078
:100C700000040400002010080402040810200000F2
:100C8000000000001F00001F000000000002040818
:100C9000102010080402000000000E1111080404C6
:100CA0000004000000000E111915151D011E0000A2
:100CB000000004040C0A0A1E1233000000000F1288
:100CC000120E1212120F000000001E11010101018C
:100CD000110E000000000F1212121212120F00006B
:100CE00000001F120A0E0A02121F000000001F124D
:100CF0000A0E0A020207000000001C12010139114D
:100D0000120C000000003312121E121212330000E7
:100D100000001F0404040404041F000000003E0837
:100D20000808080808090700000037120A060A0A1E
:100D3000123700000000070202020202223F0000F8
:100D400000001B1B1B1B15151515000000003B1296
:100D500016161A1A1217000000000E1111111111A7
:100D6000110E000000000F12120E02020207000016
:100D700000000E1111111117190E180000000F12AA
:100D8000120E0A121237000000001E110106081090
:100D9000110F000000001F1504040404040E0000DD
:100DA0000000331212121212120C00000000331253
:100DB000120A0A0C0404000000001515150E0A0A98
:100DC0000A0A000000001B0A0A04040A0A1B0000A9
:100DD00000001B0A0A040404040E000000001F099E
:100DE00008040402121F0000001C0404040404048C
:100DF00004041C0000020202040408080810000099
:100E0000000E08080808080808080E0000040A0078
:100E100000000000000000000000000000000000D2
:100E20000000003F0004000000000000000000007F
:100E300000000000000C121C123C00000000030225
:100E4000020E1212120E000000000000001C12021E
:100E5000021C000000001810101C1212123C0000AE
:100E600000000000000C121E021C000000003804EC
:100E7000041E0404041E000000000000003C120CCC
:100E8000021E221C00000302020E12121237000082
:100E90000000040000060404040E00000000080026
:100EA000000C08080808080700000302023A0A0EAE
:100EB000123700000000070404040404041F0000AB
:100EC00000000000000F15151515000000000000BF
:100ED000000F12121237000000000000000C121266
:100EE000120C000000000000000F1212120E020788
:100EF00000000000001C1212121C1038000000003C
:100F0000001B06020207000000000000001E020C89
:100F1000101E000000000004040E04040418000069
:100F200000000000001B1212123C00000000000034
:100F30000037120A0C040000000000000015150E16
:100F40000A0A000000000000001B0A040A1B00003F
:100F5000000000000037120A0C0404030000000027
:100F6000001E0804041E00000018080808040808F1
:100F700008081800080808080808080808080808E9
:100F800000060404040804040404060002251800F2
:100F90000000000000000000000000000000000051
:100FA00000000000B40F0008000000200004000052
:040FB000640A0008C7
:0400000508000131BD
:00000001FF
